:060000000A128A11F32F21
:10001400031083120313530D540DD5005508DB0050
:100024005B08031D1628172820280030D400003050
:10003400D3000030D2000030D10085285108D5000B
:100044005208D6005308D7005408D8001F300310B4
:10005400D80CD70CD60CD50CFF3E031D2928550807
:10006400D9005908DA00D317FF30D105FF30D20583
:10007400FF30D3050030D4059630DB02DB1F432864
:1000840044285E285B08803A973E03184A284B2888
:100094004C28172801300310D40CD30CD20CD10CEB
:1000A400FF3E031D4D280130D5005508DB07031D15
:1000B4005C285D284C28752820305B02031C6328CB
:1000C4006428702817280130D5000310D10DD20DF3
:1000D400D30DD40DD50B67280130DB025B08031D5B
:1000E4007428752865285A08031979287A288528D8
:1000F400D109D209D309D409D10A0319D20A03199F
:10010400D30A0319D40A08000310720D730DF80002
:10011400780883120313A5002508031D9228932849
:100124009C280030F3000030F2000030F100003071
:10013400F00043290310760D770DF8007808A40029
:100144002408031DA628A728A8289328F217FF30FF
:10015400F005FF30F105FF30F2050030F305F61726
:10016400FF30F405FF30F505FF30F6050030F705E4
:100174000030A3000030A2000030A1000030A00035
:100184007F30A502A0302407F8007808A5022030AB
:10019400F8007808A4000130F8000310A00DA10DA8
:1001A400A20DA30DF80BCF2877087302031DE428D2
:1001B40076087202031DE42875087102031DE42801
:1001C40074087002031CE728E828F7287408F00272
:1001D4007508031C750FF1027608031C760FF202F2
:1001E4007708031C770FF30220140130F800031082
:1001F400F00DF10DF20DF30DF80BF9280130A40206
:10020400031D05290629CD28A51F09290A29242902
:100214002508803A9F3E0318102911291229932892
:1002240001300310A30CA20CA10CA00CFF3E031D73
:1002340013290130F8007808A507031D2229232972
:1002440012293B2920302502031C29292A29362971
:1002540093280130F8000310A00DA10DA20DA30DE9
:10026400F80B2D290130A5022508031D3A293B2945
:100274002B292308F3002208F2002108F1002008AA
:10028400F000080083160313C300A130A50025085D
:10029400AE00DC2F253044060319512952295E296A
:1002A4004408A50043088400250883178000013012
:1002B400A5002508C307DC2FB701B801AF01B001C1
:1002C400200884000A168A1100200A128A110A12D0
:1002D4008A1508200A128A11031C71297229B5296A
:1002E40083160313B701B8010A30F0000030F1009F
:1002F400831603133808F3003708F2000A168A1528
:1003040061240A128A11710883160313B800700855
:10031400B700200884000A168A1100200A128A11E4
:10032400D03EA500FF3003180030A6002508B7070B
:100334000318B80A2608B8070130A5002508A00745
:10034400200884000A168A1100200A128A110A124F
:100354008A1508200A128A110318B129B2297629AC
:10036400B5293015D129013083160313A007FF30B6
:10037400200784000A168A1100200A128A11C40078
:10038400A500A6012608003A0319C929DC2F25086F
:10039400003A0319EE2F663A0319B329DC2F003013
:1003A4002F05A50007303005A600250826040319EB
:1003B400DC29DD29782F0630B5000030B6002E0880
:1003C400840083130008BF00840A0008C000840A64
:1003D4000008C100840A0008C2000430A5002508F2
:1003E400AE074208F3004108F2004008F1003F085C
:1003F400F0000030F7000030F6000030F500003067
:10040400F4000A168A155E270A128A1103180B2AA9
:100414000C2A292A831603134208F3004108F20028
:100424004008F1003F08F0000A168A1505240A1254
:100434008A11730883160313C2007208C10071087D
:10044400C0007008BF000330AF040030B00483164E
:100454000313BD01BE014208F3004108F200400845
:10046400F1003F08F0000030F7000030F6000030E3
:10047400F5000030F4000A168A155F250A128A1165
:100484000318452A462A362B031083160313410DFD
:10049400420D823EBD00FF3003180030BE00FF3025
:1004A400BD070318BE0AFF30BE070330F00000305A
:1004B400F1003E08F3003D08F2000A168A15612493
:1004C4000A128A11710883160313BE007008BD0056
:1004D4000A30F7000030F8003E08FA003D08F90041
:1004E4000A128A151A200A128A117808831603132D
:1004F400BE007708BD00BE1F802A812A872AFF30EC
:10050400BD070318BE0AFF30BE073D03FF3A0A12B7
:100514008A1540210A128A11831203134108831693
:100524000313BC0083120313400883160313BB0098
:10053400831203133F0883160313BA0083120313B1
:100544003E0883160313B900420883120313A7005D
:1005540083160313410883120313A600831603139F
:10056400400883120313A500831603133F08831264
:100574000313A400831603133C0883120313AB0074
:10058400831603133B0883120313AA008316031371
:100594003A0883120313A90083160313390883123C
:1005A4000313A8000A128A159F240A128A118312BF
:1005B4000313270883160313BC00831203132608AE
:1005C40083160313BB008312031325088316031336
:1005D400BA0083120313240883160313B9003C08DA
:1005E400F3003B08F2003A08F1003908F0003F300C
:1005F400F7008030F6000030F5000030F4000A16F1
:100604008A155E270A128A110318092B0A2B132B49
:10061400FF3083160313BD070318BE0AFF30BE075D
:10062400362B831603133C08F3003B08F2003A0808
:10063400F1003908F0004130F7002030F6000030B6
:10064400F5000030F4000A168A155E270A128A1192
:10065400031C2D2B2E2B362B013083160313BD07C1
:100664000318BE0A0030BE0706300A168A116D232D
:100674000A128A11831203134108D5004008D400DA
:100684003F08D3003E08D2008316031342088312A6
:100694000313D90083160313410883120313D800EC
:1006A40083160313400883120313D700831603131E
:1006B4003F0883120313D6000A168A1178250A12FA
:1006C4008A1183120313550883160313C20083127D
:1006D4000313540883160313C1008312031353082E
:1006E40083160313C00083120313520883160313E3
:1006F400BF003E08803AFF0080307F02031D842B38
:100704000A303D020318872B882BD92B8316031339
:100714004208F3004108F2004008F1003F08F000ED
:100724000030F7000030F6000030F5000030F4002F
:100734000A168A155F250A128A110318A22BA32B05
:100744004B2C83160313420883120313D40083161D
:100754000313410883120313D300831603134008C1
:1007640083120313D200831603133F088312031367
:10077400D1000A128A110A200A128A118312031361
:100784005408530452045104031DC92BCA2B4B2C87
:10079400831603133E08803AFF0080307F02031D56
:1007A400D52B02303D02031CD82BD92B4B2C83169E
:1007B40003133C08F3003B08F2003A08F10039083F
:1007C400F0004030F7008930F6007030F5005F30FB
:1007D400F4000A168A155E270A128A110318F32BED
:1007E400F42BFD2BF73083160313BD070318BE0A41
:1007F400FF30BE07052CF83083160313BD0703181A
:10080400BE0AFF30BE073D080A128A1540210A12AB
:100814008A1183120313410883160313BC00831245
:100824000313400883160313BB00831203133F080A
:1008340083160313BA00831203133E0883160313AB
:10084400B9004208F3004108F2004008F1003F08F3
:10085400F0003C08F7003B08F6003A08F5003908B8
:10086400F4000A128A1186200A128A117308831668
:100874000313B4007208B3007108B2007008B10029
:100884000030C2000030C1000030C0000030BF00A2
:10089400CF2C83160313420883120313D400831648
:1008A4000313410883120313D30083160313400870
:1008B40083120313D200831603133F088312031316
:1008C400D1000A128A110A200A128A118312031310
:1008D400540883160313B4008312031353088316B6
:1008E4000313B30083120313520883160313B200D5
:1008F40083120313510883160313B1003408F30061
:100904003308F2003208F1003108F00000300A1612
:100914008A11D0200A128A11730883120313E90082
:100924007208E8007108E7007008E60083160313F4
:10093400420883120313ED00831603134108831244
:100944000313EC0083160313400883120313EB0014
:10095400831603133F0883120313EA000A168A1549
:100964003D240A128A1183120313690883160313A0
:10097400C20083120313680883160313C100831291
:100984000313670883160313C00083120313660856
:1009940083160313BF00BD01BE01C401C40A440889
:1009A400A50001300310A50DFF3E031DD42C031038
:1009B400250D693E84000A168A1100200A128A1144
:1009C400A6000A168A1100200A128A11A7000A1624
:1009D4008A1100200A128A11A8000A168A1100201E
:1009E4000A128A11A90029083402031D032D2808BC
:1009F4003302031D032D27083202031D032D26088D
:100A040031020318062D072D082D122D0130A500E3
:100A14002508C4070A304406031D112D122DD12CBC
:100A240044083507A50036080318360AA6003D0811
:100A34002507A7003E0803183E0A2607A800270832
:100A4400B7022808031CB803B80235083604031992
:100A54002C2D2D2D332DFF30B7070318B80AFF3086
:100A6400B80703302F05A50000303005A60025087F
:100A7400260403193E2D3F2D542DFF30B7070318CC
:100A8400B80AFF30B807542D203083160313A5008D
:100A9400430884002508831780000130A500250839
:100AA400C3073F2D3808803AFF0080307F02031DC2
:100AB4005D2D013037020318602D612D462D033062
:100AC400831603132F05A50000303005A600250862
:100AD400260403196E2D6F2DE12D2D30A50043083A
:100AE40084002508831780000130A5002508C3076A
:100AF400E12D4408A50001300310A50DFF3E031DA0
:100B04007E2D0310250D693E84000A168A110020EB
:100B14000A128A11F0000A168A1100200A128A1198
:100B2400F1000A168A1100200A128A11F2000A162C
:100B34008A1100200A128A11F3003408F7003308DE
:100B4400F6003208F5003108F4000A168A155A2610
:100B54000A128A11730883160313BC007208BB00BF
:100B64007108BA007008B9000030F3000030F200D8
:100B74000030F1000A30F0003C08F7003B08F600B2
:100B84003A08F5003908F4000A168A15AD250A1248
:100B94008A11730883160313BC007208BB00710822
:100BA400BA007008B9003908303EA5004308840033
:100BB4002508831780000130A5002508C3070130EC
:100BC400C402440A031DE72DE82D7B2DFC2D303093
:100BD40083160313A50043088400250883178000A7
:100BE4000130A5002508C307FF30BD070318BE0A5E
:100BF400FF30BE073E08803AFF0080307F02031DAD
:100C0400052E01303D020318082E092EE92D831606
:100C140003133608803AFF0080307F02031D142E30
:100C240009303502031C172E182E1F2E0830831688
:100C34000313A5002508C400252E831603133508C5
:100C4400A5002508C4004408A500A6012508B5028E
:100C54002608031CB603B60244080319322E332EA9
:100C64003E2E2E30A50043088400250883178000FB
:100C74000130A5002508C30744080A128A1540213B
:100C84000A128A1183120313410883160313AD0059
:100C940083120313400883160313AC008312031357
:100CA4003F0883160313AB00831203133E08831615
:100CB4000313AA002D0883120313AB008316031336
:100CC4002C0883120313AA00831603132B08831220
:100CD4000313A900831603132A0883120313A8001D
:100CE40083160313420883120313A7008316031306
:100CF400410883120313A6008316031340088312CA
:100D04000313A500831603133F0883120313A400DF
:100D14000A128A159F240A128A11831203132708C0
:100D2400D4002608D3002508D2002408D1000A12D2
:100D34008A110A200A128A11831203135408831693
:100D44000313B40083120313530883160313B3006D
:100D540083120313520883160313B200831203137E
:100D6400510883160313B100582F4408A50001301D
:100D74000310A50DFF3E031DBA2E0310250D693E79
:100D840084000A168A1100200A128A11F0000A1639
:100D94008A1100200A128A11F1000A168A11002011
:100DA4000A128A11F2000A168A1100200A128A1104
:100DB400F3003408F7003308F6003208F500310870
:100DC400F4000A168A155A260A128A117308831621
:100DD4000313BC007208BB007108BA007008B900A4
:100DE4000030F3000030F2000030F1000A30F0006F
:100DF4003C08F7003B08F6003A08F5003908F4000F
:100E04000A168A15AD250A128A117308831603136C
:100E1400BC007208BB007108BA007008B900390838
:100E2400303EA50043088400250883178000013064
:100E3400A5002508C3074408A50001300310A50D2B
:100E4400FF3E031D202F0310250D693E84000A1662
:100E54008A1100200A128A11F0000A168A11002051
:100E64000A128A11F1000A168A1100200A128A1144
:100E7400F2000A168A1100200A128A11F3003408BB
:100E8400F7003308F6003208F5003108F4000A16BA
:100E94008A15AD250A128A11730883160313B40048
:100EA4007208B3007108B2007008B1000130C402C6
:100EB400440A031D5E2F5F2FB72E712F3030A5001B
:100EC400430884002508831780000130A500250805
:100ED400C307FF30B5070318B60AFF30B607350855
:100EE4003604031D762F772F602FDC2F3708380444
:100EF40003197D2F7E2F902F03302F05A50000307E
:100F04003005A600250826040319892F8A2F902F5F
:100F1400FF30B7070318B80AFF30B8073808803A1B
:100F2400803C031D972F3708440203189A2F9B2FE8
:100F3400A72F831603134408A500A6012508B702AA
:100F44002608031CB803B802AB2F83160313B7019A
:100F5400B801370838040319B02FB12FC82F203037
:100F6400A500430884002508831780000130A500EC
:100F74002508C307FF30B7070318B80AFF30B807BE
:100F840037083804031DC72FC82FB12F03302F058E
:100F9400A50000303005A600250826040319D32F28
:100FA400D42FDC2F2D30A500430884002508831797
:100FB400800059290130A007FF30200784000A1659
:100FC4008A1100200A128A11A5002508C4004408C9
:100FD400031DED2FEE2F4C29430884008317800155
:100FE4000800831790308400C2300A128A1500204A
:100FF4000A128A1183010A168A15C02E6400800120
:10100400840A04060319003404060128F100F001DF
:101014003A30710203180F28102818283030710252
:10102400031C152816281828F001F00A700C080073
:1010340083120313A101F81F202821282828F70967
:10104400F809F70A0319F80AA101A10AFA1F2B28C3
:101054002C283528F909FA09F90A0319FA0A013082
:10106400FB007B08A106A201A301770878040319F9
:101074003C283D287428A001A00A4B280130031005
:10108400F70DF80DFF3E031D41280130FB007B08DE
:10109400A007F81F4E284F28402801300310A20D46
:1010A400A30DFF3E031D502878087A02031D5C2817
:1010B40077087902031C5F28602867287708F902FB
:1010C4007808031CFA03FA02221401300310F80C06
:1010D400F70CFF3E031D68280130A002031D73288E
:1010E40074284F2821080319782879287E28A20912
:1010F400A309A20A0319A30A2308F8002208F70087
:1011040008007008F8007108F9007208FA0003106A
:10111400790D7A0DFB007B0883120313A5002508C3
:10112400031D952896289F280030F3000030F20014
:101134000030F1000030F0003F297408F800750811
:10114400F9007608FA000310790D7A0DFB007B088C
:10115400A4002408031DAF28B028B1289628F1174D
:10116400FF30F005FF30F1050030F205F517FF30D0
:10117400F405FF30F5050030F6050030A30000301B
:10118400A2000030A1000030A0007F30A5029830FA
:101194002407F8007808A5021830F8007808A4009D
:1011A4000130F8000310A00DA10DA20DA30DF80B42
:1011B400D42876087202031DE52875087102031D00
:1011C400E52874087002031CE828E928F428740848
:1011D400F0027508031C750FF1027608031C760AE9
:1011E400F202201401300310F00DF10DF20DFF3E58
:1011F400031DF5280130A402031D01290229D22868
:10120400A51F0529062920292508803A973E031899
:101214000C290D290E29962801300310A30CA20CC9
:10122400A10CA00CFF3E031D0F290130F800780823
:10123400A507031D1E291F290E2937291830250249
:10124400031C25292629322996280130F800031089
:10125400A00DA10DA20DA30DF80B29290130A502A3
:101264002508031D3629372927292308F3002208D6
:10127400F2002108F1002008F00008008312031393
:10128400D000D01F46294729F42AD009D00A500893
:10129400803A123E031C4F295029382A0A30F7009D
:1012A4000030F8005008F200F301F21BF30364303D
:1012B400F0000030F1000A168A1501260A128A1578
:1012C4007108FA007008F9000A128A151A200A1225
:1012D4008A15770883120313C20001300310C20D6C
:1012E400FF3E031D70290310420D593E84000A1667
:1012F4008A1100200A128A15C3000A168A110020D6
:101304000A128A15C4000A168A1100200A128A15C4
:10131400C5000A168A1100200A128A15C60046085A
:10132400A7004508A6004408A5004308A4006430AB
:10133400F7000030F8005008F900FA01F91BFA032D
:101344000A128A151A200A128A15770883120313BF
:10135400C70001300310C70DFF3E031DAC29031065
:10136400470D7D3E84000A168A1100200A128A1550
:10137400C8000A168A1100200A128A15C9000A1622
:101384008A1100200A128A15CA000A168A1100203E
:101394000A128A15CB004B08AB004A08AA00490878
:1013A400A9004808A8000A128A159F240A128A155F
:1013B400831203132708CF002608CE002508CD008A
:1013C4002408CC000A30F0000030F1005008F2008C
:1013D400F301F21BF3030A168A1501260A128A1571
:1013E400700883120313C20001300310C20DFF3EC4
:1013F400031DF7290310420D353E84000A168A1195
:1014040000200A128A15C3000A168A1100200A1243
:101414008A15C4000A168A1100200A128A15C5000A
:101424000A168A1100200A128A15C6004608A70067
:101434004508A6004408A5004308A4004F08AB00D3
:101444004E08AA004D08A9004C08A8000A128A15E3
:101454009F240A128A15831203132708C100260841
:10146400C0002508BF002408BE009E2C5008803A06
:10147400753E031C3E2A3F2AC72A0A30F00000307A
:10148400F1005008F200F301F21BF3030A168A1567
:1014940001260A128A15700883120313C200013050
:1014A4000310C20DFF3E031D522A0310420D353EA8
:1014B40084000A168A1100200A128A15C3000A162B
:1014C4008A1100200A128A15C4000A168A11002003
:1014D4000A128A15C5000A168A1100200A128A15F2
:1014E400C6004608A7004508A6004408A50043080E
:1014F400A4000A30F7000030F8005008F900FA019F
:10150400F91BFA030A128A151A200A128A15770897
:1015140083120313C70001300310C70DFF3E031DE0
:101524008E2A0310470D593E84000A168A110020A2
:101534000A128A15C8000A168A1100200A128A158E
:10154400C9000A168A1100200A128A15CA000A164E
:101554008A1100200A128A15CB004B08AB004A08F6
:10156400AA004908A9004808A8000A128A159F245D
:101574000A128A15831203132708C1002608C00023
:101584002508BF002408BE009E2C5008C20001306C
:101594000310C20DFF3E031DCA2A0310420D353E3F
:1015A40084000A168A1100200A128A15C3000A163A
:1015B4008A1100200A128A15C4000A168A11002012
:1015C4000A128A15C5000A168A1100200A128A1501
:1015D400C6004608C1004508C0004408BF004308CF
:1015E400BE009E2C5008803A123E031CFA2AFB2AA5
:1015F400E32B0A30F7000030F8005008F200F30142
:10160400F21BF3036430F0000030F1000A168A156F
:1016140001260A128A157108FA007008F9000A12E4
:101624008A151A200A128A15770883120313C20036
:1016340001300310C20DFF3E031D1B2B0310420D8E
:10164400253E84000A168A1100200A128A15C30056
:101654000A168A1100200A128A15C4000A168A1171
:1016640000200A128A15C5000A168A1100200A12DF
:101674008A15C6004608A7004508A6004408A50028
:101684004308A4006430F7000030F8005008F90063
:10169400FA01F91BFA030A128A151A200A128A158A
:1016A400770883120313C70001300310C70DFF3EF0
:1016B400031D572B0310470D493E84000A168A1157
:1016C40000200A128A15C8000A168A1100200A127C
:1016D4008A15C9000A168A1100200A128A15CA003E
:1016E4000A168A1100200A128A15CB004B08AB0097
:1016F4004A08AA004908A9004808A8000A128A153D
:101704009F240A128A15831203132708CF00260880
:10171400CE002508CD002408CC000A30F0000030AB
:10172400F1005008F200F301F21BF3030A168A15C4
:1017340001260A128A15700883120313C2000130AD
:101744000310C20DFF3E031DA22B0310420D013EE8
:1017540084000A168A1100200A128A15C3000A1688
:101764008A1100200A128A15C4000A168A11002060
:101774000A128A15C5000A168A1100200A128A154F
:10178400C6004608A7004508A6004408A50043086B
:10179400A4004F08AB004E08AA004D08A9004C084D
:1017A400A8000A128A159F240A128A1583120313A9
:1017B4002708C1002608C0002508BF002408BE0071
:1017C4009E2C5008803A753E031CE92BEA2B722CA0
:1017D4000A30F0000030F1005008F200F301F21B6F
:1017E400F3030A168A1501260A128A157008831251
:1017F4000313C20001300310C20DFF3E031DFD2B75
:101804000310420D013E84000A168A1100200A12B8
:101814008A15C3000A168A1100200A128A15C40008
:101824000A168A1100200A128A15C5000A168A119E
:1018340000200A128A15C6004608A7004508A6001B
:101844004408A5004308A4000A30F7000030F8005B
:101854005008F900FA01F91BFA030A128A151A2032
:101864000A128A15770883120313C7000130031084
:10187400C70DFF3E031D392C0310470D253E840080
:101884000A168A1100200A128A15C8000A168A113B
:1018940000200A128A15C9000A168A1100200A12A9
:1018A4008A15CA000A168A1100200A128A15CB006A
:1018B4004B08AB004A08AA004908A9004808A80038
:1018C4000A128A159F240A128A1583120313270801
:1018D400C1002608C0002508BF002408BE009E2CB5
:1018E4005008C20001300310C20DFF3E031D752CC9
:1018F4000310420D013E84000A168A1100200A12C8
:101904008A15C3000A168A1100200A128A15C40017
:101914000A168A1100200A128A15C5000A168A11AD
:1019240000200A128A15C6004608C1004508C000F6
:101934004408BF004308BE000800831203132708AD
:101944008039AC002C08B1002708AC002C07AD008E
:101954002D08B700A61FAF2CB02CB12C37143708B4
:101964000319B52CB62CC52C370A031DBA2CBB2C75
:10197400C32C0030A7000030A6000030A5000030C2
:10198400A400A617CD2C0030A7000030A60000301C
:10199400A5000030A4002B088039AC002C08B10647
:1019A4002B08AC002C07AD002D08B600AA1FDB2CB9
:1019B400DC2CDD2C361436080319E12CE22CF12C36
:1019C400360A031DE62CE72CEF2C0030AB00003068
:1019D400AA000030A9000030A800AA17F92C003092
:1019E400AB000030AA000030A9000030A80036087F
:1019F4000319FD2CFE2C032D3708031D022D032D86
:101A04000C2D0030A7000030A6000030A5000030E7
:101A1400A400FF2F2408AC002C08F0002A080A16A2
:101A24008A1586240A128A15710883120313BD00CD
:101A34007008BC003C08AC00AD01AE01AF012F083A
:101A4400B5002E08B4002D08B3002C08B2003D08E0
:101A5400AC00AD01AE01AF012F08BB002E08BA00E7
:101A64002D08B9002C08B8002508AC002C08F0009B
:101A740029080A168A1586240A128A1571088312FF
:101A84000313BD007008BC003C08AC00AD01AE01FE
:101A9400AF012C08B2072D0803110318013E0319E6
:101AA400542DB3072E0803110318013E03195B2DAF
:101AB400B4072F0803110318013E0319622DB5075B
:101AC4003D08AC00AD01AE01AF012C08B8072D08EC
:101AD40003110318013E0319702DB9072E080311D1
:101AE4000318013E0319772DBA072F0803110318B1
:101AF400013E03197E2DBB072608AC002C08F0001C
:101B040028080A168A1586240A128A15710883126F
:101B14000313BD007008BC003C08AC00AD01AE016D
:101B2400AF012C08B2072D0803110318013E031955
:101B34009C2DB3072E0803110318013E0319A32D8E
:101B4400B4072F0803110318013E0319AA2DB50782
:101B54003D08AC00AD01AE01AF012C08B8072D085B
:101B640003110318013E0319B82DB9072E080311F8
:101B74000318013E0319BF2DBA072F0803110318D8
:101B8400013E0319C62DBB070830AC000310B20D8B
:101B9400B30DB40DB50DAC0BC82D2508AC002C0845
:101BA400F00028080A168A1586240A128A15710874
:101BB40083120313BD007008BC003C08AC003D0850
:101BC400AD00AE01AF012C08B2072D0803110318B4
:101BD400013E0319EE2DB3072E0803110318013E2D
:101BE4000319F52DB4072F0803110318013E031937
:101BF400FC2DB5072408AC002C08F00029080A16AF
:101C04008A1586240A128A15710883120313BD00EB
:101C14007008BC003C08AC003D08AD00AE01AF014B
:101C24002C08B2072D0803110318013E03191B2EBB
:101C3400B3072E0803110318013E0319222EB4071B
:101C44002F0803110318013E0319292EB507083084
:101C5400AC000310B20DB30DB40DB50DAC0B2B2EAF
:101C64002408AC002C08F00028080A168A158624DB
:101C74000A128A15710883120313BD007008BC0090
:101C84003C08AC003D08AD00AE01AF012C08B20722
:101C94002D0803110318013E0319512EB3072E0812
:101CA40003110318013E0319582EB4072F0803111A
:101CB4000318013E03195F2EB5072508AC002C0854
:101CC400F0002A080A168A1586240A128A15710851
:101CD40083120313BD007008BC003C08AC003D082F
:101CE400AD00AE01AF012C08B8072D08031103188D
:101CF400013E03197E2EB9072E0803110318013E75
:101D04000319852EBA072F0803110318013E03197E
:101D14008C2EBB072608AC002C08F00029080A16F4
:101D24008A1586240A128A15710883120313BD00CA
:101D34007008BC003C08AC003D08AD00AE01AF012A
:101D44002C08B8072D0803110318013E0319AB2E04
:101D5400B9072E0803110318013E0319B22EBA075E
:101D64002F0803110318013E0319B92EBB072608D7
:101D7400AC002C08F0002A080A168A1586240A12D8
:101D84008A15710883120313BD007008BC003C0857
:101D9400AC003D08AD00AE01AF0108300310AC0D3E
:101DA400AD0DAE0DAF0DFF3E031DD02E2C08B807B0
:101DB4002D0803110318013E0319E12EB9072E085B
:101DC40003110318013E0319E82EBA072F08031163
:101DD4000318013E0319EF2EBB073208AC00330889
:101DE400AD003408AE003508AF0018300310AF0C56
:101DF400AE0CAD0CAC0CFF3E031DF82E2C08B8073E
:101E04002D0803110318013E0319092FB9072E08E1
:101E140003110318013E0319102FBA072F080311E9
:101E24000318013E0319172FBB070830AC00031039
:101E3400B20DB30DB40DB50DAC0B192F3708360721
:101E4400AC00AD01AD0D2C08823EBC002D0803187A
:101E5400013EFF3EBD004B2F0130AC000310B80D16
:101E6400B90DBA0DBB0DAC0B302FB51F3A2F3B2F5C
:101E74003C2F38140130AC000310B20DB30DB40D77
:101E8400B50DAC0B3E2FFF30BC070318BD0AFF3065
:101E9400BD07BA1F4E2F4F2F2E2FB601B51F532F3C
:101EA400542F702FFF303205AC00FF303305AD00E6
:101EB400FF303405AE007F303505AF002F082E0407
:101EC4002D042C040319672F682F6B2FB601B60A53
:101ED400702F381C6E2F6F2F702F682F3608031940
:101EE400742F752FA62F0130B80700300318013066
:101EF400B907003003180130BA0700300318013065
:101F0400BB073B1C862F872FA62F3808AC00390847
:101F1400AD003A08AE003B08AF000130B0002F0D11
:101F2400AF0CAE0CAD0CAC0CB00B912F2F08BB005A
:101F34002E08BA002D08B9002C08B8000130BC07DF
:101F44000318BD0A0030BD073D08803AFF00803009
:101F54007F02031DAF2FFF303C02031CB22FB32FAF
:101F6400BE2F7F3083120313BB008030BA000030D1
:101F7400B9000030B800F32F831203133D08803AF0
:101F8400FF0080307F02031DC92F01303C0203187B
:101F9400CC2FCD2FD92F003083120313BB00003078
:101FA400BA000030B9000030B800B101F32F831239
:101FB40003133C08AC002C08B700FF30B805FF3011
:101FC400B9057F30BA050030BB05371CEA2FEB2F6B
:101FD400EC2FBA173708AC0003102C0CAD002D08F9
:101FE400BB003108AC002C08BB043B08A7003A082E
:101FF400A6003908A5003808A400080010308A009B
:102004000408840A820700340034003480343F34E6
:10201400003400342034413400340034C8344234B1
:10202400003400347A344434003440341C344634AC
:1020340000345034C33447340034243474344934C1
:102044008034963418344B342034BC34BE344C348D
:1020540028346B346E344E34F9340234153450342D
:10206400EC347834AD346034CA34F23449347134E5
:102074000034003480343F34CD34CC34CC343D345B
:102084000A34D73423343C346F34123483343A342E
:102094001734B734D1343834AC34C53427343734F6
:1020A400BD343734863435349534BF34D634333480
:1020B4007734CC342B3432345F3470348934303454
:1020C400FF34E634DB342E340834E5343C341E3437
:1020D40060344234A2340D3401340034003400340A
:1020E4000A340034003400346434003400340034DE
:1020F400E83403340034003410342734003400341A
:10210400A034863401340034403442340F34003473
:1021140080349634983400340034E134F534053492
:102124000034CA349A343B34543465346D347034D6
:1021340065347234613474347534723465342034E3
:102144006934733420342D343E342034253433340C
:102154006634433420340D340A34003483160313B4
:1021640007178717181518121930990083120313CB
:10217400981783160313981608004130831203132B
:102184009F008030831603139F00831203130C13E4
:10219400831603130C178B170B170800F800780825
:1021A4000319D528D628EA28F31FD928DA28EA28DB
:1021B4007009FA007109FB007209FC007309FD0043
:1021C400FA0A0319FB0A0319FC0A0319FD0AF22887
:1021D4007308FD007208FC007108FB007008FA0027
:1021E4007308720471047004031DF928FA28032982
:1021F4000030F3000030F2000030F1000030F00055
:1022040089299630F4007408F90015290130F40086
:102214007408F90701300310FD0CFC0CFB0CFA0CDC
:10222400FF3E031D0D29FE307D05031D1A291B29C0
:10223400082937290130F4007408F9070130FA0736
:10224400003003180130FB07003003180130FC078D
:10225400003003180130FD0701300310FD0CFC0CA5
:10226400FB0CFA0CFF3E031D2F29FF307D05031DD7
:102274003C293D291C2949290130F9020130F40087
:102284000310FA0DFB0DFC0DFD0DF40B4229FC1B94
:102294004C294D2953290230790203185229532914
:1022A4003E297918562957295F29FF30FA05FF304E
:1022B400FB057F30FC05FF30FD050310F90C7908A0
:1022C400F400F501F601F70118300310F40DF50DD3
:1022D400F60DF70DFF3E031D67297408FA0475080F
:1022E400FB047608FC047708FD04780803197B29AD
:1022F4007C298129F31F7F2980298129FD177D08E5
:10230400F3007C08F2007B08F1007A08F000080072
:1023140077088039F800780883120313A40077083B
:10232400F8007807F9007908AB00F61F9A299B2971
:102334009C292B142B080319A029A129B1292B0AA4
:10234400031DA529A629AE290030F7000030F600A8
:102354000030F5000030F400F617F701B929003019
:10236400F7000030F6000030F5000030F400730888
:102374008039F8007808A4067308F8007807F90093
:102384007908AC00F21FC729C829C9292C142C08C4
:102394000319CD29CE29DE292C0A031DD229D329DC
:1023A400DB290030F3000030F2000030F10000308F
:1023B400F000F217F301E6290030F3000030F200D8
:1023C4000030F1000030F0007308720471047004EE
:1023D400031DED29EE29072A0030F7000030F6002E
:1023E4000030F5000030F4008030F6047F30F7044C
:1023F4002408F8007808F7047708F3007608F20058
:102404007508F1007408F0006C2B2B08031D0B2ACF
:102414000C2A152A0030F3000030F2000030F100DD
:102424000030F0006C2B2B08F800F9017908FB0050
:102434002C087802FA00031CFB037A087F3EA500EF
:102444007B080318013E003EA6007708A300760827
:10245400A2007508A1007408A0000030F700003045
:10246400F6000030F5000030F4000030AA0000301F
:10247400A9000030A8000030A700AC01912A2C0864
:102484000319452A462A662A0130F8000310A00DD4
:10249400A10DA20DA30DF80B482A0130F80003107A
:1024A400F40DF50DF60DF70DF80B512AAA1F5B2A52
:1024B4005C2A5D2A74140130F8000310A70DA80DDE
:1024C400A90DAA0DF80B5F2A73082302031D742AB1
:1024D40072082202031D742A71082102031D742A42
:1024E40070082002031C772A782A8D2A2A1770087C
:1024F400A0027108031C710F802A812AA1027208AC
:10250400031C720F862A872AA2027308031C730F06
:102514008C2A8D2AA3020130F8007808AC071A30FF
:102524002C02031C962A972A412A230822042104F8
:10253400200403199E2A9F2ABE2A2714BE2A01308A
:10254400F8000310F40DF50DF60DF70DF80BA32AA2
:10255400AA1FAD2AAE2AAF2A74140130F800031062
:10256400A70DA80DA90DAA0DF80BB12AFF30A507D8
:102574000318A60AFF30A607F61FC12AC22AA12AF9
:10258400AC01AA1FC62AC72AE32AFF302705F80090
:10259400FF302805F900FF302905FA007F302A05AD
:1025A400FB007B087A04790478040319DA2ADB2A0D
:1025B400DE2AAC01AC0AE32A741CE12AE22AE32AEB
:1025C400DB2A2C080319E72AE82A192B0130F4071F
:1025D400003003180130F507003003180130F60706
:1025E400003003180130F707771CF92AFA2A192B4F
:1025F4007408F8007508F9007608FA007708FB00FB
:102604000130FC007B0DFB0CFA0CF90CF80CFC0BF4
:10261400042B7B08F7007A08F6007908F50078089F
:10262400F4000130A5070318A60A0030A6072608FF
:10263400803AFF0080307F02031D222BFF302502E9
:10264400031C252B262B342BFF3083120313A500E8
:102654000030A6000030F7000030F6000030F5002E
:102664000030F400831203132608803AFF00803000
:102674007F02031D3F2B013025020318422B432BFD
:10268400502B83120313A501A6010030F70000307C
:10269400F6000030F5000030F400A40183120313A7
:1026A4002508F8007808AB002B1C592B5A2B5C2BFF
:1026B400F617602B7F30F8007808F6052B08F80031
:1026C4000310780CF9007908F7002408F80078085A
:1026D400F704FE29080083120313D1006E3051025F
:1026E400031C752B762B832C3F30A7000030A600EB
:1026F4000030A5000030A4006430F6000030F7007C
:102704005108C200C3014208F8004308F9000A1640
:102714008A151B250A168A11760883120313C4002E
:1027240001300310C40DFF3E031D932B0310440D11
:102734007D3E84000A168A1100200A168A11C500FB
:102744000A168A1100200A168A11C6000A168A116E
:1027540000200A168A11C7000A168A1100200A16D8
:102764008A11C8004808AB004708AA004608A90017
:102774004508A8000A128A159F240A168A11831292
:1027840003132708D0002608CF002508CE0024080C
:10279400CD000A30F6000030F7005108C200C30132
:1027A4004208F2004308F3006430F0000030F10006
:1027B4000A168A15E1240A168A117108F9007008AC
:1027C400F8000A168A151B250A168A117608831240
:1027D4000313C40001300310C40DFF3E031DED2B91
:1027E4000310440D593E84000A168A1100200A166B
:1027F4008A11C5000A168A1100200A168A11C60019
:102804000A168A1100200A168A11C7000A168A11AC
:1028140000200A168A11C8004808A7004708A60025
:102824004608A5004508A4005008AB004F08AA00BC
:102834004E08A9004D08A8000A128A159F240A16FA
:102844008A11831203132708CC002608CB0025081D
:10285400CA002408C9000A30F0000030F100510811
:10286400C200C3014208F2004308F3000A168A15A5
:10287400E1240A168A11700883120313C40001307C
:102884000310C40DFF3E031D422C0310440D353EBE
:1028940084000A168A1100200A168A11C5000A1635
:1028A4008A1100200A168A11C6000A168A1100200D
:1028B4000A168A11C7000A168A1100200A168A11FC
:1028C400C8004808A7004708A6004608A500450810
:1028D400A4004C08AB004B08AA004A08A900490808
:1028E400A8000A128A159F240A168A118312031358
:1028F4002708C1002608C0002508BF002408BE0020
:10290400772D0B305102031C882C892C342D3F3039
:10291400A7000030A6000030A5000030A4000A3053
:10292400F6000030F7005108C200C3014208F80065
:102934004308F9000A168A151B250A168A11760817
:1029440083120313C40001300310C40DFF3E031DA2
:10295400A62C0310440D593E84000A168A11002047
:102964000A168A11C5000A168A1100200A168A114D
:10297400C6000A168A1100200A168A11C7000A1610
:102984008A1100200A168A11C8004808AB004708BB
:10299400AA004608A9004508A8000A128A159F241F
:1029A4000A168A11831203132708D0002608CF00C1
:1029B4002508CE002408CD000A30F0000030F100D4
:1029C4005108C200C3014208F2004308F3000A168A
:1029D4008A15E1240A168A11700883120313C400AD
:1029E40001300310C40DFF3E031DF32C0310440DEE
:1029F400353E84000A168A1100200A168A11C50081
:102A04000A168A1100200A168A11C6000A168A11AB
:102A140000200A168A11C7000A168A1100200A1615
:102A24008A11C8004808A7004708A6004608A50060
:102A34004508A4005008AB004F08AA004E08A9009E
:102A44004D08A8000A128A159F240A168A118312B7
:102A540003132708C1002608C0002508BF00240866
:102A6400BE00772D3F30A7000030A6000030A5003F
:102A74000030A4005108C20001300310C20DFF3E13
:102A8400031D3F2D0310420D353E84000A168A11A2
:102A940000200A168A11C3000A168A1100200A1699
:102AA4008A11C4000A168A1100200A168A11C50068
:102AB4000A168A1100200A168A11C6004608AB00BD
:102AC4004508AA004408A9004308A8000A128A1568
:102AD4009F240A168A11831203132708C1002608AB
:102AE400C0002508BF002408BE0008008312031399
:102AF40055088039DA005A08E2005508DA005A0706
:102B0400DB005B08E400D41F882D892D8A2D641412
:102B1400640803198E2D8F2D9F2D640A031D932D98
:102B2400942D9C2D0030D5000030D4000030D3000B
:102B34000030D200D417D501A72D0030D5000030C5
:102B4400D4000030D3000030D20059088039DA00B4
:102B54005A08E300630862060319B12DB22DB32DA0
:102B640062175908DA005A07DB005B08E300D81F34
:102B7400BC2DBD2DBE2D631463080319C22DC32DB6
:102B8400D32D630A031DC72DC82DD02D0030D900C5
:102B94000030D8000030D7000030D600D817D90153
:102BA400DB2D0030D9000030D8000030D7000030D1
:102BB400D600640863020318E02DE12D252E621F60
:102BC400E42DE52DE92D8030DA005A08E206640888
:102BD400DA005A08E5006308DA005A08E4006508D8
:102BE400DA005A08E3005208DA005A08E5005608E9
:102BF400DA005A08D2006508DA005A08D6005308E9
:102C0400DA005A08E5005708DA005A08D3006508C4
:102C1400DA005A08D7005408DA005A08E5005808C0
:102C2400DA005A08D4006508DA005A08D8005508B2
:102C3400DA005A08E5005908DA005A08D500650890
:102C4400DA005A08D900E5016308DA00DB015B0801
:102C5400DD0064085A02DC00031CDD035D08803AD1
:102C6400FF0080307F02031D392E1A305C02031CE2
:102C74003C2E3D2E7A2E831203135508540453041C
:102C84005204031D462E482E0130492E0030DA002E
:102C94005A08E5000030D5000030D4000030D300DD
:102CA4000030D2006308DA005A08E400822E651C62
:102CB4005C2E5D2E662E6508DA0003105A0C01386E
:102CC400DB005B08E500682E0310E50C521C6B2E3C
:102CD4006C2E6D2EE5170130DA00550DD50CD40C91
:102CE400D30CD20CDA0B6F2E0130DA005A08E40749
:102CF4008312031363086402031C812E822E592E4F
:102D0400621B852E862ED12E6408031D8A2E8B2EDF
:102D1400942E0030D5000030D4000030D3000030B1
:102D2400D200FF2F5608D207570803110318013E9B
:102D340003199D2ED307580803110318013E0319E4
:102D4400A42ED407590803110318013E0319AB2E0E
:102D5400D507551CAE2EAF2E852F651CB22EB32E73
:102D6400BC2E6508DA0003105A0C0138DB005B083E
:102D7400E500BE2E0310E50C521CC12EC22EC32E3C
:102D8400E5170130DA00550DD50CD40CD30CD20C58
:102D9400DA0BC52E0130DA005A08E407852F5508EE
:102DA400803AFF005908803A7F02031DE32E580839
:102DB4005402031DE32E57085302031DE32E560845
:102DC40052020318E62EE72E3F2FFF30DA00FF30C1
:102DD400DB00FF30DC00FF30DD005608DE00570862
:102DE400DF005808E0005908E1005208DE025308E9
:102DF400031C530FFE2EFF2EDF025408031C540F36
:102E0400042F052FE0025508031C550F0A2F0B2F22
:102E1400E1025E08DA075F0803185F0F122F132F11
:102E2400DB0760080318600F182F192FDC076108EF
:102E34000318610ADD075D08D5005C08D4005B084F
:102E4400D3005A08D2008030DA005A08E206E509B5
:102E5400E50A6508031D2F2F302F4D2F0130D207AF
:102E6400003003180130D307003003180130D407B1
:102E7400003003180130D5074D2F5608D2025708E9
:102E8400031C570FD3025808031C580FD4025908C7
:102E9400031C590FD5025508540453045204031D4E
:102EA400542F552F812F6508031D592F5A2F812F19
:102EB4000030D5000030D4000030D3000030D20000
:102EC400FF2F0130DA000310D20DD30DD40DD50D30
:102ED400DA0B652FE51F6F2F702F712F5214651CAD
:102EE400742F752F782F0314E50D7A2F0310E50D39
:102EF400640803197E2F7F2F812F0130E402D41F31
:102F0400842F852F632FE301E51F892F8A2F982FA4
:102F140065087F3903198F2F902F932FE301E30A5C
:102F2400982F521C962F972F982F902F63080319D0
:102F34009C2F9D2FD12F0130D20700300318013070
:102F4400D307003003180130D407003003180130D0
:102F5400D507551CAE2FAF2FD12F5208DA005308D6
:102F6400DB005408DC005508DD000130DE005D0D97
:102F7400DD0CDC0CDB0CDA0CDE0BB92F5D08D500A4
:102F84005C08D4005B08D3005A08D200640A031911
:102F9400CC2FCD2FD12F0130DA005A08E407640A70
:102FA4000319D52FD62FDB2F6408031DDA2FDB2F4F
:102FB400E92F0030D5000030D4000030D3000030B9
:102FC400D2006408031DE72FE82FE92FE201641CF7
:102FD400EC2FED2FEF2FD417F32F7F30DA005A08A0
:102FE400D4056408DA0003105A0CDB005B08D50032
:0C2FF400E21FFD2FFE2FFF2FD517080055
:10380A00730872047104700403190C2C0D2C0F2C0C
:10381A008030F3060800F00083160313981C162C58
:10382A00172C112C70088312031399000800F40056
:10383A00F201F301312C72087407F1007108840057
:10384A0000080A168A1510240A168A150130F2078A
:10385A000318F30A0030F30772087407F1007108BD
:10386A00840083170008031D3B2C3C2C202C0800E5
:10387A00803083120313E9066D08D5006C08D40062
:10388A006B08D3006A08D2006908D9006808D80012
:10389A006708D7006608D6000A168A1178250A161C
:1038AA008A15831203135508E9005408E8005308DF
:1038BA00E7005208E6000800F401F501701C662CC6
:1038CA00672C6D2C7208F4070318F50A7308F507BC
:1038DA0001300310F20DF30DFF3E031D6E2C013073
:1038EA000310F10CF00CFF3E031D752C70087104D7
:1038FA00031D802C812C632C7508F1007408F000DC
:10390A000800F800F401F5017008F200F3017208EA
:10391A00F6007308F700781C932C942C9A2C7608DE
:10392A00F4070318F50A7708F50701300310F60DB6
:10393A00F70DFF3E031D9B2C0310F80C7808031D9E
:10394A00A72CA82C902C7508F1007408F000080028
:10395A00F400083074020318B32CB42CB52CB82C1C
:10396A00F001F101E02CC530F20072088312031352
:10397A009F057408F20003300310F20CFF3E031D8A
:10398A00C12C7208F30073089F041F150930F20056
:10399A00F20BCD2CD02C831203131F19D52CD62C45
:1039AA00D02C1E08831603131E08F200F3017208B6
:1039BA00F0007308F1000800700871040319E62C7E
:1039CA00E72C162DF501F50AF52C01300310F00D40
:1039DA00F10DFF3E031DEB2C0130F4007408F507CE
:1039EA00F11FF82CF92CEA2C71087302031DFF2C25
:1039FA0070087202031C022D032D092D7008F202B1
:103A0A007108031CF303F30201300310F10CF00CEC
:103A1A00FF3E031D0A2D0130F502031D152D162D3B
:103A2A00F92C7308F1007208F0000800FB01FC0190
:103A3A00760877040319222D232D5A2DFD01FD0A3C
:103A4A00312D01300310F60DF70DFF3E031D272D12
:103A5A000130FA007A08FD07F71F342D352D262D7F
:103A6A0001300310FB0DFC0DFF3E031D362D7708B8
:103A7A007902031D422D76087802031C452D462D36
:103A8A004D2D7608F8027708031CF903F9027B1416
:103A9A0001300310F70CF60CFF3E031D4E2D0130CA
:103AAA00FD02031D592D5A2D352D7C08F7007B0880
:103ABA00F600080000307005F80000307105F900C2
:103ACA0080307205FA007F307305FB007B087A04A8
:103ADA0079047804031D722D732D7B2D0030F300B9
:103AEA000030F2000030F1000030F00000307405C0
:103AFA00F80000307505F90080307605FA007F304D
:103B0A007705FB007B087A0479047804031D8E2D5F
:103B1A008F2D972D0030F7000030F6000030F500A9
:103B2A000030F40077087306031DA52D7608720687
:103B3A00031DA52D75087106031DA52D74087006B1
:103B4A000319A82DA92DAB2D0310AC2D03140800C1
:103B5A0073087204710470040319B42DB52DF82D7D
:103B6A00F901F90AC52D0130F8000310F00DF10D25
:103B7A00F20DF30DF80BBA2D0130F8007808F907A9
:103B8A00F31FC82DC92DB82D73087702031DD72D31
:103B9A0072087602031DD72D71087502031DD72DF1
:103BAA0070087402031CDA2DDB2DE92D7008F4026B
:103BBA007108031C710FF5027208031C720FF602DA
:103BCA007308031C730FF70201300310F30CF20C95
:103BDA00F10CF00CFF3E031DEA2D0130F902031D22
:103BEA00F72DF82DC92D7708F3007608F20075082D
:103BFA00F1007408F0000800F601F31F052E062EE6
:103C0A000D2EF209F309F20A0319F30AF601F60A6C
:103C1A00F11F102E112E162EF009F109F00A0319C0
:103C2A00F10A7008710403191B2E1C2E4B2EF50184
:103C3A00F50A2A2E01300310F00DF10DFF3E031D87
:103C4A00202E0130F4007408F507F11F2D2E2E2EB8
:103C5A001F2E71087302031D342E70087202031C92
:103C6A00372E382E3E2E7008F2027108031CF30319
:103C7A00F30201300310F10CF00CFF3E031D3F2E3E
:103C8A000130F502031D4A2E4B2E2E2E76080319FB
:103C9A004F2E502E552EF209F309F20A0319F30A90
:103CAA007308F1007208F00008000030FC000030D0
:103CBA00FB000030FA000030F90073087204710446
:103CCA0070040319692E6A2EB72EFD01FD0A7A2E99
:103CDA000130F8000310F00DF10DF20DF30DF80BA1
:103CEA006F2E0130F8007808FD07F31F7D2E7E2E17
:103CFA006D2E0130F8000310F90DFA0DFB0DFC0DC5
:103D0A00F80B802E73087702031D952E720876022F
:103D1A00031D952E71087502031D952E70087402F5
:103D2A00031C982E992EA82E7008F4027108031C01
:103D3A00710FF5027208031C720FF6027308031C56
:103D4A00730FF702791401300310F30CF20CF10C23
:103D5A00F00CFF3E031DA92E0130FD02031DB62EF5
:103D6A00B72E7E2E7C08F3007B08F2007A08F10059
:103D7A007908F00008000A168A11B0200A168A1576
:103D8A000A168A11BF200A168A1500300A168A15E1
:103D9A00AD240A168A15710883160313CE0070081B
:103DAA00CD003B3083120313A7009F30A600FF30DB
:103DBA00A500E530A400831603134D08F0004E0851
:103DCA00F100F201F30100300A168A11D0200A1616
:103DDA008A15730883120313AB007208AA007108CC
:103DEA00A9007008A8000A128A159F240A168A15C3
:103DFA0083120313270883160313C80083120313BD
:103E0A00260883160313C700831203132508831693
:103E1A000313C60083120313240883160313C50071
:103E2A003C30F3002330F200D730F1000A30F000C2
:103E3A004808F7004708F6004608F5004508F40068
:103E4A000A168A118A210A168A1573088316031319
:103E5A00CC007208CB007108CA007008C900913002
:103E6A0083120313EE006E0883160313A0004C0896
:103E7A00A4004B08A3004A08A2004908A1009030F8
:103E8A000A128A1144210A168A1590300A168A15CE
:103E9A001C240A168A150D3083120313EF00FB3017
:103EAA00EE00EE0B562FEF0B562FCA2E0A128A116E
:103EBA00002800307005F80000307105F9008030E4
:103ECA007205FA007F307305FB007B087A047904D7
:103EDA007804031D712F722F7A2F0030F3000030FF
:103EEA00F2000030F1000030F00000307405F800F4
:103EFA0000307505F90080307605FA007F307705C5
:103F0A00FB007B087A0479047804031D8D2F8E2F19
:103F1A00962F0030F7000030F6000030F500003030
:103F2A00F400F31F992F9A2FBE2F0030F8000030AB
:103F3A00F9000030FA008030FB007008F8027108BE
:103F4A00031C710FA92FAA2FF9027208031C720F02
:103F5A00AF2FB02FFA027308031C730FB52FB62FB9
:103F6A00FB027B08F3007A08F2007908F10078086E
:103F7A00F000F71FC12FC22FE62F0030F8000030E3
:103F8A00F9000030FA008030FB007408F802750866
:103F9A00031C750FD12FD22FF9027608031C760F56
:103FAA00D72FD82FFA027708031C770FDD2FDE2FC1
:103FBA00FB027B08F7007A08F6007908F500780812
:103FCA00F4008030F3068030F70677087302031D89
:103FDA00F82F76087202031DF82F75087102031D67
:103FEA00F82F740870020318FB2FFC2FFE2F031002
:063FFA00FF2F0314080074
:02400E00393F38
:00000001FF
